:100000000C9434000C9451000C9451000C94510049
:100010000C9451000C9451000C9451000C9451001C
:100020000C9451000C9451000C9451000C9451000C
:100030000C9451000C9451000C9451000C945100FC
:100040000C9451000C9451000C9451000C945100EC
:100050000C9451000C9451000C9451000C945100DC
:100060000C9451000C94510011241FBECFEFD8E026
:10007000DEBFCDBF11E0A0E0B1E0EEE1F5E002C0EF
:1000800005900D92AC31B107D9F721E0ACE1B1E0B8
:1000900001C01D92AC31B207E1F70E94C7000C9479
:1000A0008D020C9400001092C5008093C40088E17A
:1000B0008093C10086E08093C2000895E0ECF0E0F8
:1000C000908195FFFDCF8093C6000895EF92FF9237
:1000D0000F931F93CF93DF9300D000D0CDB7DEB73F
:1000E00069837A838B839C838E010F5F1F4F7E0110
:1000F00085E0E80EF11CF80181918F010E945E00FD
:100100000E151F05C1F70F900F900F900F90DF9104
:10011000CF911F910F91FF90EF90089584B5826069
:1001200084BD85B5856085BD16BC8BE987BD089506
:10013000E0E8F0E080818083E1E8F0E080818960A0
:10014000808310928500109284008FE79EE3909345
:100150008B0080938A00089580E480937C0087E878
:1001600080937A000895ECE7F0E09081987F8770A3
:10017000892B8083EAE7F0E080818064808380813E
:1001800086FDFDCF80917800909179000895CF93FE
:10019000DF93CDB7DEB76C970FB6F894DEBF0FBE16
:1001A000CDBF87E60E9453000E948E000E949800F7
:1001B0000E94AC00389A409A8CE1E0E0F1E0DE0168
:1001C000119601900D928A95E1F7412C512C320144
:1001D0005E018DE1A80EB11CA99B05C0C301B2014F
:1001E0000E946600A99AB19BF7CF81E00E94B300FC
:1001F000BC0180E090E00E9492016B017C0149808B
:100200005A806B807C808E010B5F1F4FF8016191DB
:100210007191819191918F01A70196010E94200215
:100220009B01AC01C301B2010E9426012B013C01DC
:10023000A7019601C701B6010E9420026B017C0153
:100240000A151B0519F7B19AC7CF5058BB27AA2723
:100250000E943D010C94E6010E94D80138F00E94F2
:10026000DF0120F039F49F3F19F426F40C94D501F6
:100270000EF4E095E7FB0C94CF01E92F0E94F70103
:1002800058F3BA17620773078407950720F079F4CB
:10029000A6F50C9419020EF4E0950B2EBA2FA02DA2
:1002A0000B01B90190010C01CA01A0011124FF2723
:1002B000591B99F0593F50F4503E68F11A16F0401E
:1002C000A22F232F342F4427585FF3CF469537951D
:1002D0002795A795F0405395C9F77EF41F16BA0BE2
:1002E000620B730B840BBAF09150A1F0FF0FBB1F90
:1002F000661F771F881FC2F70EC0BA0F621F731FD9
:10030000841F48F4879577956795B795F7959E3F35
:1003100008F0B0CF9395880F08F09927EE0F9795C6
:1003200087950895E89409C097FB3EF490958095D1
:10033000709561957F4F8F4F9F4F9923A9F0F92FAB
:1003400096E9BB279395F695879577956795B79529
:10035000F111F8CFFAF4BB0F11F460FF1BC06F5F0F
:100360007F4F8F4F9F4F16C0882311F096E911C021
:10037000772321F09EE8872F762F05C0662371F042
:1003800096E8862F70E060E02AF09A95660F771F56
:10039000881FDAF7880F9695879597F9089597F94A
:1003A0009F6780E870E060E008959FEF80EC08951B
:1003B00000240A9416161706180609060895002444
:1003C0000A9412161306140605060895092E0394BE
:1003D000000C11F4882352F0BB0F40F4BF2B11F432
:1003E00060FF04C06F5F7F4F8F4F9F4F089557FD91
:1003F0009058440F551F59F05F3F71F04795880F93
:1004000097FB991F61F09F3F79F087950895121629
:1004100013061406551FF2CF4695F1DF08C01616D5
:1004200017061806991FF1CF869571056105089486
:100430000895E894BB2766277727CB0197F908959D
:100440000E9433020C94E6010E94D80138F00E9409
:10045000DF0120F0952311F00C94CF010C94D5010D
:1004600011240C941A020E94F70170F3959FC1F3B6
:10047000950F50E0551F629FF001729FBB27F00D52
:10048000B11D639FAA27F00DB11DAA1F649F6627A7
:10049000B00DA11D661F829F2227B00DA11D621FF6
:1004A000739FB00DA11D621F839FA00D611D221FB0
:1004B000749F3327A00D611D231F849F600D211D94
:1004C000822F762F6A2F11249F5750409AF0F1F017
:1004D00088234AF0EE0FFF1FBB1F661F771F881F80
:1004E00091505040A9F79E3F510580F00C94CF01E8
:1004F0000C941A025F3FE4F3983ED4F38695779507
:100500006795B795F795E7959F5FC1F7FE2B880F25
:0E051000911D9695879597F90895F894FFCF61
:10051E00E743B1C36DC5E640AD695EBD6B8C4E3928
:0C052E00EBD0BDB45646A82FA586E5A969
:00000001FF
