:100000000C9434000C9451000C9451000C94510049
:100010000C9451000C9451000C9451000C9451001C
:100020000C9451000C9451000C9451000C9451000C
:100030000C9451000C9451000C9451000C945100FC
:100040000C9451000C9451000C9451000C945100EC
:100050000C9451000C9451000C9451000C945100DC
:100060000C9451000C94510011241FBECFEFD8E026
:10007000DEBFCDBF11E0A0E0B1E0E4EAFAE002C0EB
:1000800005900D92A434B107D9F721E0A4E4B1E0C2
:1000900001C01D92A93CB207E1F70E94F8010C943F
:1000A00050050C94000080E480937C0087E88093E6
:1000B0007A000895ECE7F0E09081987F8770892BB3
:1000C0008083EAE7F0E0808180648083808186FD20
:1000D000FDCF8091780090917900089587E891E0B4
:1000E0000E94D40285E491E00E94D402109244015F
:1000F00040E050E0BA0187E891E00E94E60240E06B
:1001000050E0BA0185E491E00E94E602809144014A
:100110008F5F80934401803158F30895CF92DF922E
:10012000EF92FF92CF93DF936B017C0160E085E457
:1001300091E00E942C03A70196010E94BA0320E0DF
:1001400030E044E353E40E94DE0418163CF131C071
:100150006C2F87E891E00E942C0320E030E044EB14
:1001600053E40E94BA039B01AC016C2F87E891E035
:100170000E9445036C2F85E491E00E942C0320E04F
:1001800030E044EB53E40E94BA039B01AC016C2FB6
:1001900085E491E00E944503219602C0C0E0D0E0D2
:1001A00085E491E00E94DB0290E08C179D0784F6C5
:1001B00042C060E085E491E00E942C03A701960113
:1001C0000E94BA0320E030E044E353EC0E9427048D
:1001D00088233CF130C06C2F87E891E00E942C030B
:1001E00020E030E044EB53E40E94BB039B01AC01F0
:1001F0006C2F87E891E00E9445036C2F85E491E025
:100200000E942C0320E030E044EB53E40E94BB0347
:100210009B01AC016C2F85E491E00E94450321967F
:1002200002C0C0E0D0E085E491E00E94DB0290E0F3
:100230008C179D0784F6DF91CF91FF90EF90DF90B0
:10024000CF9008958F929F92AF92BF92CF92DF92FC
:10025000EF92FF92CF936B017C010E948E0087E8A2
:1002600091E00E940103B701A60187E891E00E9496
:10027000E6021092440160E0C12CD12C7601C1E06D
:10028000E62FF0E0EE0FFF1FEE0FFF1FEC5EFE4FBC
:1002900080809180A280B38087E891E00E942C0347
:1002A0009B01AC01C501B4010E94E3049B01AC01B8
:1002B000C701B6010E94BB036B017C016091440140
:1002C000662341F1E62FF0E0EE0FFF1FEE0FFF1F58
:1002D000E050FF4F80809180A280B380615085E420
:1002E00091E00E942C039B01AC01C501B4010E9466
:1002F000E3049B01AC01C701B6010E94BA036B0184
:100300007C01609144016F5F60934401653008F4A3
:10031000B7CF04C0C09344016C2FB2CF209100012D
:10032000309101014091020150910301C701B601D2
:100330000E94E3046B017C0185E491E00E940103CB
:10034000B701A60185E491E00E94E602C701B6016B
:10035000CF91FF90EF90DF90CF90BF90AF909F90A4
:100360008F9008951092C5008093C40088E1809317
:10037000C10086E08093C2000895E0ECF0E0908137
:1003800095FFFDCF8093C6000895EF92FF920F93E3
:100390001F93CF93DF9300D000D0CDB7DEB7698332
:1003A0007A838B839C838E010F5F1F4F7E0185E0D4
:1003B000E80EF11CF80181918F010E94BD010E151C
:1003C0001F05C1F70F900F900F900F90DF91CF9105
:1003D0001F910F91FF90EF900895E0EBF0E0808186
:1003E00083688083E1EBF0E08081876080830895FB
:1003F000CF93DF93CDB7DEB7A5970FB6F894DEBFE6
:100400000FBECDBF87E60E94B2016BE970E080E0CD
:1004100094E00E9456036FE77EE380E090E00E9444
:1004200080030E94ED010E94530080E090E00E9452
:100430006E00389A84B1896284B9409A289A8CE116
:10044000E8E2F1E0DE01119601900D928A95E1F764
:1004500082E38F8F91E09DA31CA21E8E1D8E812CA6
:10046000912C540118A219A21AA21BA21E01EDE19F
:100470002E0E311C8F8DE3EBF0E08083A99B39C0F9
:10048000ED8DFE8D3196FE8FED8FE436F10561F531
:10049000FCA1F11114C08DA18130C1F08230F9F4BA
:1004A0002D9AE0EBF0E080818F7B8083FCA1FDA39F
:1004B00082E38F8F91E09CA31E8E1D8E15C0ECA150
:1004C000EDA31F8E1CA21E8E1D8E0EC0FCA1FDA3CF
:1004D00082E38F8F92E09CA31E8E1D8E05C0ECA13F
:1004E000EDA31F8E1E8E1D8EC501B4010E94C50195
:1004F000A99AB19BBFCF81E00E945A00BC0180E065
:1005000090E00E942C04762E672E582E492EC9802A
:10051000DA80EB80FC804E01F5E08F0E911C062FF7
:10052000B72EA82E192FF4016191719181919191AB
:100530004F01202F3B2D4A2D512F0E94E3049B0198
:10054000AC01C701B6010E94BB036B017C01272DE2
:10055000362D452D542D602F7B2D8A2D912F0E94F5
:10056000E304062FB72EA82E192F82149304D9F670
:10057000C701B6010E942201F62E072F182FE92E7F
:1005800028A139A14AA15BA10E94BA0320E030E072
:100590004AE754E40E94E3044B015C01B19AF8A2DB
:1005A00009A31AA3EBA266CFFC01E05CFF4F108207
:1005B000319610820895DC01AF5BBF4FFC01E05C17
:1005C000FF4F8C919081891B8F7008959C01FC01D5
:1005D000E05CFF4F908191509F70908331968081B5
:1005E000981304C08FEF890F8F708083F90184E026
:1005F000989FE00DF11D1124408351836283738322
:1006000008959C01FC01EF5BFF4F9081E92FF0E022
:100610003197D901A05CBF4F8C919817A1F0EE0FD4
:10062000FF1FEE0FFF1FE20FF31F60815181428118
:100630008381F901EF5BFF4F91509F709083E62F0C
:10064000342F282F04C0E0E050E030E020E06E2F8F
:10065000752F832F922F0895FC01E05CFF4F2081BE
:1006600031963081231769F0620F6F70FC0124E02E
:10067000629FE00DF11D112460817181828193815F
:10068000089560E070E0CB010895FC01DC01A05CFE
:10069000BF4F9C91690F6F7084E0689FE00DF11D62
:1006A0001124208331834283538308959C0194B5A0
:1006B000926094BD2115310521F485B5816085BD19
:1006C0000EC02830310521F485B5826085BD0FC08C
:1006D0002034310521F485B5836085BD0EC0211518
:1006E00081E0380721F485B5846085BD06C02115F9
:1006F000344019F485B5856085BD16BC67BD089585
:100700009C0195B5986095BD2115310531F4E1E85E
:10071000F0E080818160808312C02830310531F49F
:10072000E1E8F0E080818260808313C020343105ED
:1007300031F4E1E8F0E080818360808312C021150C
:1007400081E0380731F4E1E8F0E080818460808363
:1007500008C02115344029F4E1E8F0E0808185608B
:100760008083109285001092840070938B006093B8
:100770008A0008955058BB27AA270E94D2030C94E0
:10078000A4040E94960438F00E949D0420F039F4DD
:100790009F3F19F426F40C9493040EF4E095E7FBC4
:1007A0000C948D04E92F0E94B50458F3BA17620720
:1007B00073078407950720F079F4A6F50C94D70405
:1007C0000EF4E0950B2EBA2FA02D0B01B90190016C
:1007D0000C01CA01A0011124FF27591B99F0593FB0
:1007E00050F4503E68F11A16F040A22F232F342FF8
:1007F0004427585FF3CF469537952795A795F04046
:100800005395C9F77EF41F16BA0B620B730B840B5A
:10081000BAF09150A1F0FF0FBB1F661F771F881F12
:10082000C2F70EC0BA0F621F731F841F48F487956A
:1008300077956795B795F7959E3F08F0B0CF93955C
:10084000880F08F09927EE0F9795879508950E94D5
:10085000690408F481E00895E89409C097FB3EF428
:1008600090958095709561957F4F8F4F9F4F9923FD
:10087000A9F0F92F96E9BB279395F695879577957B
:100880006795B795F111F8CFFAF4BB0F11F460FF3B
:100890001BC06F5F7F4F8F4F9F4F16C0882311F093
:1008A00096E911C0772321F09EE8872F762F05C0A7
:1008B000662371F096E8862F70E060E02AF09A9542
:1008C000660F771F881FDAF7880F9695879597F937
:1008D0000895990F0008550FAA0BE0E8FEEF1616D1
:1008E0001706E807F907C0F012161306E407F50724
:1008F00098F0621B730B840B950B39F40A2661F098
:10090000232B242B252B21F408950A2609F4A1403A
:10091000A6958FEF811D811D089597F99F6780E847
:1009200070E060E008959FEF80EC089500240A9441
:100930001616170618060906089500240A941216BA
:100940001306140605060895092E0394000C11F4ED
:10095000882352F0BB0F40F4BF2B11F460FF04C09A
:100960006F5F7F4F8F4F9F4F089557FD9058440FF3
:10097000551F59F05F3F71F04795880F97FB991FFE
:1009800061F09F3F79F087950895121613061406BB
:10099000551FF2CF4695F1DF08C016161706180648
:1009A000991FF1CF86957105610508940895E89423
:1009B000BB2766277727CB0197F908950E94690422
:1009C00008F48FEF08950E94F6040C94A4040E948A
:1009D000960438F00E949D0420F0952311F00C94A9
:1009E0008D040C94930411240C94D8040E94B50433
:1009F00070F3959FC1F3950F50E0551F629FF00172
:100A0000729FBB27F00DB11D639FAA27F00DB11D8A
:100A1000AA1F649F6627B00DA11D661F829F222713
:100A2000B00DA11D621F739FB00DA11D621F839F9A
:100A3000A00D611D221F749F3327A00D611D231F70
:100A4000849F600D211D822F762F6A2F11249F57BE
:100A500050409AF0F1F088234AF0EE0FFF1FBB1FC1
:100A6000661F771F881F91505040A9F79E3F510580
:100A700080F00C948D040C94D8045F3FE4F3983E0E
:100A8000D4F3869577956795B795F795E7959F5F2A
:100A9000C1F7FE2B880F911D9695879597F90895BC
:040AA000F894FFCFF8
:100AA4000000803F9CFD6AC00B2DA240016C47C032
:100AB4000B4C383F22085F3722085F381946A738A5
:100AC40022085F3822085F37E743B1C36DC5E640AB
:100AD400AD695EBD6B8C4E39EBD0BDB45646A82FC4
:040AE400A586E5A955
:00000001FF
