S01100004D6563682D4C6162332E7372656327
S11300000C9434000C9451000C9451000C94510045
S11300100C9451000C9451000C9451000C94510018
S11300200C9451000C9451000C9451000C94510008
S11300300C9451000C9451000C9451000C945100F8
S11300400C9451000C9451000C9451000C945100E8
S11300500C9451000C9451000C9451000C945100D8
S11300600C9451000C94510011241FBECFEFD8E022
S1130070DEBFCDBF11E0A0E0B1E0E2EFF8E002C0E6
S113008005900D92A434B107D9F721E0A4E4B1E0BE
S113009001C01D92A93CB207E1F70E9462010C94D1
S11300A077040C94000080E480937C0087E88093BC
S11300B07A000895ECE7F0E09081987F8770892BAF
S11300C08083EAE7F0E0808180648083808186FD1C
S11300D0FDCF8091780090917900089587E891E0B0
S11300E00E94450285E491E00E9445021092440179
S11300F040E050E0BA0187E891E00E944C0240E001
S113010050E0BA0185E491E00E944C0280914401E0
S11301108F5F80934401803158F308958F929F92AA
S1130120AF92BF92CF92DF92EF92FF92CF936B0187
S11301307C0187E891E00E946702B701A60187E885
S113014091E00E944C021092440160E0C12CD12C39
S11301507601C1E0E62FF0E0EE0FFF1FEE0FFF1F68
S1130160EC5EFE4F80809180A280B38087E891E0AE
S11301700E9492029B01AC01C501B4010E940A04D1
S11301809B01AC01C701B6010E9410036B017C0105
S113019060914401662341F1E62FF0E0EE0FFF1F6A
S11301A0EE0FFF1FE050FF4F80809180A280B3804C
S11301B0615085E491E00E9492029B01AC01C5016B
S11301C0B4010E940A049B01AC01C701B6010E945C
S11301D00F036B017C01609144016F5F60934401E4
S11301E0653008F4B7CF04C0C09344016C2FB2CF7C
S11301F020910001309101014091020150910301CD
S1130200C701B6010E940A046B017C0185E491E0F8
S11302100E946702B701A60185E491E00E944C02A6
S1130220C701B601CF91FF90EF90DF90CF90BF90C0
S1130230AF909F908F9008951092C5008093C40052
S113024088E18093C10086E08093C2000895E0ECC9
S1130250F0E0908195FFFDCF8093C6000895EF9262
S1130260FF920F931F93CF93DF9300D000D0CDB7AD
S1130270DEB769837A838B839C838E010F5F1F4F64
S11302807E0185E0E80EF11CF80181918F010E9446
S113029027010E151F05C1F70F900F900F900F90B7
S11302A0DF91CF911F910F91FF90EF900895E0EBB4
S11302B0F0E0808183688083E1EBF0E080818760F7
S11302C080830895CF93DF93CDB7DEB7A5970FB69C
S11302D0F894DEBF0FBECDBF87E60E941C016BE918
S11302E070E080E094E00E94AB026FE77EE380E080
S11302F090E00E94D5020E9457010E94530080E0C2
S113030090E00E946E00389A84B1896284B9409A60
S1130310289A8CE1E8E2F1E0DE01119601900D9259
S11303208A95E1F788EC8F8F91E09DA31CA21E8E25
S11303301D8E812C912C540118A219A21AA21BA261
S11303401E01EDE12E0E311C8F8DE3EBF0E0808376
S1130350A99B38C0ED8DFE8D3196FE8FED8FF297FF
S113036061F5FCA1F11114C08DA18130C1F082307E
S1130370F9F4289AE0EBF0E0808183688083FCA1A3
S1130380FDA388EC8F8F91E09CA31E8E1D8E15C05B
S1130390ECA1EDA31F8E1CA21E8E1D8E0EC0FCA10F
S11303A0FDA388EC8F8F92E09CA31E8E1D8E05C04A
S11303B0ECA1EDA31F8E1E8E1D8EC501B4010E94FB
S11303C02F01A99AB19BC0CF81E00E945A00BC01C1
S11303D080E090E00E947C03762E672E582E492EF2
S11303E0F9800A811B81EC804E01F5E08F0E911C8F
S11303F0B62EA72EC82ED92EF40161917191819148
S113040091914F012B2D3A2D4C2D5D2D0E940A0404
S11304109B01AC016F2D702F812F9E2D0E94100324
S1130420F62E072F182FE92E272D362D452D542D66
S11304306B2D7A2D8C2D9D2D0E940A04B62EA72E8D
S1130440C82ED92E82149304B9F628A139A14AA141
S11304505BA16F2D702F812F9E2D0E940F032AE622
S11304603BE046E35BE30E940A0420E030E04AE715
S113047054E40E940A040E948E004B015C01B19A6C
S1130480F8A209A31AA3EBA25FCFFC01E05CFF4F23
S113049010823196108208959C01FC01E05CFF4FAC
S11304A0908191509F70908331968081981304C0FD
S11304B08FEF890F8F708083F90184E0989FE00D9E
S11304C0F11D1124408351836283738308959C0139
S11304D0FC01EF5BFF4F9081E92FF0E03197D901E8
S11304E0A05CBF4F8C919817A1F0EE0FFF1FEE0F89
S11304F0FF1FE20FF31F6081518142818381F90163
S1130500EF5BFF4F91509F709083E62F342F282F7D
S113051004C0E0E050E030E020E06E2F752F832F20
S1130520922F0895FC01E05CFF4F208131963081C9
S1130530231769F0620F6F70FC0124E0629FE00DE5
S1130540F11D11246081718182819381089560E09D
S113055070E0CB0108959C0194B5926094BD21157F
S1130560310521F485B5816085BD0EC02830310583
S113057021F485B5826085BD0FC02034310521F496
S113058085B5836085BD0EC0211581E0380721F44F
S113059085B5846085BD06C02115344019F485B540
S11305A0856085BD16BC67BD08959C0195B59860AE
S11305B095BD2115310531F4E1E8F0E080818160D9
S11305C0808312C02830310531F4E1E8F0E0808105
S11305D08260808313C02034310531F4E1E8F0E017
S11305E080818360808312C0211581E0380731F453
S11305F0E1E8F0E080818460808308C02115344004
S113060029F4E1E8F0E08081856080831092850020
S11306101092840070938B0060938A000895505860
S1130620BB27AA270E9427030C94D0030E94C2036D
S113063038F00E94C90320F039F49F3F19F426F4DE
S11306400C94BF030EF4E095E7FB0C94B903E92F77
S11306500E94E10358F3BA176207730784079507EA
S113066020F079F4A6F50C9403040EF4E0950B2E17
S1130670BA2FA02D0B01B90190010C01CA01A001F0
S11306801124FF27591B99F0593F50F4503E68F14B
S11306901A16F040A22F232F342F4427585FF3CF8C
S11306A0469537952795A795F0405395C9F77EF45D
S11306B01F16BA0B620B730B840BBAF09150A1F0A6
S11306C0FF0FBB1F661F771F881FC2F70EC0BA0F2C
S11306D0621F731F841F48F4879577956795B795B4
S11306E0F7959E3F08F0B0CF9395880F08F09927AF
S11306F0EE0F979587950895E89409C097FB3EF40B
S113070090958095709561957F4F8F4F9F4F99235A
S1130710A9F0F92F96E9BB279395F69587957795D8
S11307206795B795F111F8CFFAF4BB0F11F460FF98
S11307301BC06F5F7F4F8F4F9F4F16C0882311F0F0
S113074096E911C0772321F09EE8872F762F05C004
S1130750662371F096E8862F70E060E02AF09A959F
S1130760660F771F881FDAF7880F9695879597F994
S1130770089597F99F6780E870E060E008959FEF1F
S113078080EC089500240A94161617061806090624
S1130790089500240A9412161306140605060895F3
S11307A0092E0394000C11F4882352F0BB0F40F47B
S11307B0BF2B11F460FF04C06F5F7F4F8F4F9F4FBB
S11307C0089557FD9058440F551F59F05F3F71F03D
S11307D04795880F97FB991F61F09F3F79F08795A4
S11307E00895121613061406551FF2CF4695F1DF2D
S11307F008C0161617061806991FF1CF86957105BD
S1130800610508940895E894BB2766277727CB01F0
S113081097F908950E941D040C94D0030E94C2030A
S113082038F00E94C90320F0952311F00C94B90309
S11308300C94BF0311240C9404040E94E10370F38C
S1130840959FC1F3950F50E0551F629FF001729F71
S1130850BB27F00DB11D639FAA27F00DB11DAA1F80
S1130860649F6627B00DA11D661F829F2227B00DCD
S1130870A11D621F739FB00DA11D621F839FA00D58
S1130880611D221F749F3327A00D611D231F849FA8
S1130890600D211D822F762F6A2F11249F575040FF
S11308A09AF0F1F088234AF0EE0FFF1FBB1F661F7A
S11308B0771F881F91505040A9F79E3F510580F043
S11308C00C94B9030C9404045F3FE4F3983ED4F30E
S11308D0869577956795B795F795E7959F5FC1F7E7
S11308E0FE2B880F911D9695879597F90895F89496
S10508F0FFCF34
S11308F20000803FD402C9BF4C47A33FB803F8BEEF
S1130902350D9C3D7411983C7411983D2F1AE43DA9
S11309127411983D7411983CE743B1C36DC5E64028
S1130922AD695EBD6B8C4E39EBD0BDB45646A82F73
S1070932A586E5A904
S9030000FC
