S01100004D6563682D4C6162332E7372656327
S11300000C9434000C9451000C9451000C94510045
S11300100C9451000C9451000C9451000C94510018
S11300200C9451000C9451000C9451000C94510008
S11300300C9451000C9451000C9451000C945100F8
S11300400C9451000C9451000C9451000C945100E8
S11300500C9451000C9451000C9451000C945100D8
S11300600C9451000C94510011241FBECFEFD8E022
S1130070DEBFCDBF11E0A0E0B1E0E4E0FCE002C0EF
S113008005900D92A434B107D9F721E0A4E4B1E0BE
S113009001C01D92A93CB207E1F70E943B020C94F7
S11300A000060C94000080E480937C0087E8809331
S11300B07A000895ECE7F0E09081987F8770892BAF
S11300C08083EAE7F0E0808180648083808186FD1C
S11300D0FDCF8091780090917900089587E891E0B0
S11300E00E94010385E491E00E94010310924401FF
S11300F040E050E0BA0187E891E00E94130340E039
S113010050E0BA0185E491E00E9413038091440118
S11301108F5F80934401803158F30895CF92DF922A
S1130120EF92FF92CF93DF936B017C0160E085E453
S113013091E00E945903A70196010E94E70320E081
S113014030E044E353E40E94410518163CF131C009
S11301506C2F87E891E00E94590320E030E044EBE3
S113016053E40E94E7039B01AC016C2F87E891E004
S11301700E9472036C2F85E491E00E94590320E0F1
S113018030E044EB53E40E94E7039B01AC016C2F85
S113019085E491E00E947203219602C0C0E0D0E0A1
S11301A085E491E00E94080390E08C179D0784F693
S11301B042C060E085E491E00E945903A7019601E2
S11301C00E94E70320E030E044E353EC0E9454042F
S11301D088233CF130C06C2F87E891E00E945903DA
S11301E020E030E044EB53E40E94E8039B01AC01BF
S11301F06C2F87E891E00E9472036C2F85E491E0F4
S11302000E94590320E030E044EB53E40E94E803E9
S11302109B01AC016C2F85E491E00E94720321964E
S113022002C0C0E0D0E085E491E00E94080390E0C1
S11302308C179D0784F6DF91CF91FF90EF90DF90AC
S1130240CF9008958F929F92AF92BF92CF92DF92F8
S1130250EF92FF92CF936B017C010E948E0087E89E
S113026091E00E942E03B701A60187E891E00E9465
S113027013031092440160E0C12CD12C7601C1E03B
S1130280E62FF0E0EE0FFF1FEE0FFF1FEC5EFE4FB8
S113029080809180A280B38087E891E00E94590316
S11302A09B01AC01C501B4010E9446059B01AC0150
S11302B0C701B6010E94E8036B017C01609144010F
S11302C0662309F44BC0E62FF0E0EE0FFF1FEE0F9C
S11302D0FF1FE050FF4F80809180A280B380615067
S11302E085E491E00E9459039B01AC01C501B4016E
S11302F00E9446059B01AC01C701B6010E94E703B9
S11303006B017C01609144016F5F6093440165302F
S113031008F4B6CF2091000130910101409102010F
S113032050910301C701B6010E9446056B017C018F
S113033085E491E00E942E03B701A60185E491E0D3
S11303400E94130361E085E491E00E9459039B013C
S1130350AC01C701B6010E94E70304C0C093440185
S11303606C2F8ECFCF91FF90EF90DF90CF90BF9006
S1130370AF909F908F9008951092C5008093C40011
S113038088E18093C10086E08093C2000895E0EC88
S1130390F0E0908195FFFDCF8093C6000895EF9221
S11303A0FF920F931F93CF93DF9300D000D0CDB76C
S11303B0DEB769837A838B839C838E010F5F1F4F23
S11303C07E0185E0E80EF11CF80181918F010E9405
S11303D0C7010E151F05C1F70F900F900F900F90D6
S11303E0DF91CF911F910F91FF90EF900895E0EB73
S11303F0F0E0808183688083E1EBF0E080818760B6
S113040080830895CF93DF93EC01BC01990F880B8F
S1130410990B0E9491042CEF39EA41EF5CE30E94AE
S113042046052CEF39EA4BE651E40E94E8030E94AA
S1130430B3050E9459046F3F710519F014F06FEF72
S113044070E0772314F460E070E01C161D063CF4A1
S11304502D9AE0EBF0E080818064808308C0DD2386
S113046034F42D98E0EBF0E080818F7B8083CB0126
S1130470DF91CF910895CF93DF93CDB7DEB7A197E6
S11304800FB6F894DEBF0FBECDBF87E60E94BC0155
S11304906BE970E080E094E00E9483036FE77EE301
S11304A080E090E00E94AD030E94F7010E94530097
S11304B080E090E00E946E00389A84B1896284B929
S11304C0409A289A8CE1E8E2F1E0DE01119601906D
S11304D00D928A95E1F71D8E81E089A318A21F8EE3
S11304E01E8EC12CD12C76011E019DE1290E311CDA
S11304F08D8DE3EBF0E08083A99B36C0C701B60184
S11305000E94CF01EE8DFF8D3196FF8FEE8FE43682
S1130510F10549F5F8A1F11120C089A1813069F4F0
S113052088EE9FEF0E9402028D8F289A98A199A3CA
S1130530E2E0E8A31F8E1E8E16C0F9A1F23069F422
S113054088E190E00E9402028D8F289A88A189A3F5
S113055091E098A31F8E1E8E06C02898E8A1E9A3F7
S113056018A21F8E1E8EA99AB19BC2CF81E00E9451
S11305705A00BC0180E090E00E948F04762E672E22
S1130580582E492EC980DA80EB80FC804E01F5E0BC
S11305908F0E911C162F072FB82EA92EF4016191EE
S11305A07191819191914F01212F302F4B2D5A2D13
S11305B00E9446059B01AC01C701B6010E94E803F5
S11305C06B017C01272D362D452D542D612F702F65
S11305D08B2D9A2D0E944605162F072FB82EA92E73
S11305E028143904D9F6C701B6010E94220120E07B
S11305F030E04AE754E40E9446056B017C01B19A5D
S113060077CFFC01E05CFF4F108231961082089591
S1130610DC01AF5BBF4FFC01E05CFF4F8C9190812C
S1130620891B8F7008959C01FC01E05CFF4F908151
S113063091509F70908331968081981304C08FEFFE
S1130640890F8F708083F90184E0989FE00DF11D7C
S11306501124408351836283738308959C01FC01B8
S1130660EF5BFF4F9081E92FF0E03197D901A05C57
S1130670BF4F8C919817A1F0EE0FFF1FEE0FFF1FD5
S1130680E20FF31F6081518142818381F901EF5BA5
S1130690FF4F91509F709083E62F342F282F04C072
S11306A0E0E050E030E020E06E2F752F832F922F92
S11306B00895FC01E05CFF4F2081319630812317BF
S11306C069F0620F6F70FC0124E0629FE00DF11D80
S11306D011246081718182819381089560E070E0CA
S11306E0CB010895FC01DC01A05CBF4F9C91690F14
S11306F06F7084E0689FE00DF11D11242083318325
S11307004283538308959C0194B5926094BD21154E
S1130710310521F485B5816085BD0EC028303105D1
S113072021F485B5826085BD0FC02034310521F4E4
S113073085B5836085BD0EC0211581E0380721F49D
S113074085B5846085BD06C02115344019F485B58E
S1130750856085BD16BC67BD08959C0195B59860FC
S113076095BD2115310531F4E1E8F0E08081816027
S1130770808312C02830310531F4E1E8F0E0808153
S11307808260808313C02034310531F4E1E8F0E065
S113079080818360808312C0211581E0380731F4A1
S11307A0E1E8F0E080818460808308C02115344052
S11307B029F4E1E8F0E0808185608083109285006F
S11307C01092840070938B0060938A0008955058AF
S11307D0BB27AA270E94FF030C9407050E94F90473
S11307E038F00E94000520F039F49F3F19F426F4F4
S11307F00C94F6040EF4E095E7FB0C94F004E92F56
S11308000E94180558F3BA176207730784079507FF
S113081020F079F4A6F50C943A050EF4E0950B2E2D
S1130820BA2FA02D0B01B90190010C01CA01A0013E
S11308301124FF27591B99F0593F50F4503E68F199
S11308401A16F040A22F232F342F4427585FF3CFDA
S1130850469537952795A795F0405395C9F77EF4AB
S11308601F16BA0B620B730B840BBAF09150A1F0F4
S1130870FF0FBB1F661F771F881FC2F70EC0BA0F7A
S1130880621F731F841F48F4879577956795B79502
S1130890F7959E3F08F0B0CF9395880F08F09927FD
S11308A0EE0F9795879508950E94CC0408F481E093
S11308B008950E9460046894B1110C943B05089556
S11308C00E94200588F09F5798F0B92F9927B751B7
S11308D0B0F0E1F0660F771F881F991F1AF0BA95E0
S11308E0C9F714C0B13091F00E943A05B1E00895FF
S11308F00C943A05672F782F8827B85F39F0B93FF1
S1130900CCF3869577956795B395D9F73EF4909592
S11309108095709561957F4F8F4F9F4F0895E89410
S113092009C097FB3EF490958095709561957F4F33
S11309308F4F9F4F9923A9F0F92F96E9BB279395E1
S1130940F695879577956795B795F111F8CFFAF4F1
S1130950BB0F11F460FF1BC06F5F7F4F8F4F9F4F22
S113096016C0882311F096E911C0772321F09EE880
S1130970872F762F05C0662371F096E8862F70E0E6
S113098060E02AF09A95660F771F881FDAF7880FC0
S11309909695879597F90895990F0008550FAA0B16
S11309A0E0E8FEEF16161706E807F907C0F012167E
S11309B01306E407F50798F0621B730B840B950B81
S11309C039F40A2661F0232B242B252B21F40895D6
S11309D00A2609F4A140A6958FEF811D811D089573
S11309E097F99F6780E870E060E008959FEF80ECDE
S11309F0089500240A941616170618060906089581
S1130A0000240A9412161306140605060895092EE6
S1130A100394000C11F4882352F0BB0F40F4BF2B55
S1130A2011F460FF04C06F5F7F4F8F4F9F4F089595
S1130A3057FD9058440F551F59F05F3F71F047958B
S1130A40880F97FB991F61F09F3F79F08795089570
S1130A50121613061406551FF2CF4695F1DF08C08F
S1130A60161617061806991FF1CF869571056105AC
S1130A7008940895E894BB2766277727CB0197F954
S1130A8008950E94CC0408F48FEF08950E9459053C
S1130A900C9407050E94F90438F00E94000520F028
S1130AA0952311F00C94F0040C94F60411240C9486
S1130AB03B050E94180570F3959FC1F3950F50E014
S1130AC0551F629FF001729FBB27F00DB11D639FFC
S1130AD0AA27F00DB11DAA1F649F6627B00DA11DA2
S1130AE0661F829F2227B00DA11D621F739FB00D48
S1130AF0A11D621F839FA00D611D221F749F3327B8
S1130B00A00D611D231F849F600D211D822F762F50
S1130B106A2F11249F5750409AF0F1F088234AF02D
S1130B20EE0FFF1FBB1F661F771F881F9150504099
S1130B30A9F79E3F510580F00C94F0040C943B05FA
S1130B405F3FE4F3983ED4F3869577956795B79520
S1130B50F795E7959F5FC1F7FE2B880F911D96953A
S1130B60879597F908950E942005E8F09E37E8F0EC
S1130B709639B8F49E3848F4672F782F8827985F01
S1130B80F9CF86957795679593959539D0F3B62FD8
S1130B90B1706B0F711D811D20F487957795679552
S1130BA093950C94D7050C94F2050C943B0588237B
S1130BB071F4772321F09850872B762F07C0662392
S1130BC011F499270DC09051862B70E060E02AF053
S1130BD09A95660F771F881FDAF7880F9695879581
S1130BE097F908959F3F31F0915020F487957795B8
S1130BF06795B795880F911D9695879597F90895F0
S1070C00F894FFCF92
S1130C040000803F9CFD6AC00B2DA240016C47C0CC
S1130C140B4C383F22085F3722085F381946A7383F
S1130C2422085F3822085F37E743B1C36DC5E64045
S1130C34AD695EBD6B8C4E39EBD0BDB45646A82F5E
S1070C44A586E5A9EF
S9030000FC
